:0C037400020AC35002080000020C000145
:100343001202A0AE0CAF0D7C007D0212000EED4C2C
:100353007007B291F50C750D03AE0CAF0D7C007DEB
:100363000412000EED4C70DBB292F50C750D01809A
:01037300D2B7
:1002A000E4F590758901AE0AAF0BAB07AA06EA33F5
:1002B00095E0F9F8C374FF9BFF74FF9AFEE499FD83
:1002C000E498FCE4FB7A01F9F81202FF8F8CAE0A85
:1002D000AF0BAB07AA06EA3395E0F9F8C374FF9BAE
:1002E000FF74FF9AFEE499FDE498FCE4FB7A01F9BF
:0F02F000F81202FFAF038F8AD2A9D2AFD28C22AD
:03000B0002016788
:10016700C0E0C0F0C083C082C0D075D000C000C05E
:1001770001C002C003C004C005C006C007AE0AAF75
:100187000BAB07AA06EA3395E0F9F8C374FF9BFFA8
:1001970074FF9AFEE499FDE498FCE4FB7A01F9F810
:1001A7001202FF8F8CAE0AAF0BAB07AA06EA339594
:1001B700E0F9F8C374FF9BFF74FF9AFEE499FDE42E
:1001C70098FCE4FB7A01F9F81202FFAF038F8A0566
:1001D70009E50970020508C39414E5086480948052
:1001E7004010B290750800750900050DE50D700205
:1001F700050CD007D006D005D004D003D002D0011B
:0D020700D000D0D0D082D083D0F0D0E03233
:03000000020214E5
:0C021400787FE4F6D8FD75810D02025BD6
:10000E00C2D5EC30E709B2D5E4C39DFDE49CFCEE0D
:10001E0030E715B2D5E4C39FFFE49EFE120044C341
:10002E00E49DFDE49CFC800312004430D507C3E43C
:06003E009FFFE49EFE227C
:1002FF00C2D5E830E70FB2D5E4C39BFBE49AFAE42A
:10030F0099F9E498F8EC30E717B2D51203351200DB
:10031F00D5E4C39BFBE49AFAE499F9E498F88003D7
:10032F001200D530D50DE4C39FFFE49EFEE49DFD82
:04033F00E49CFC221C
:10022000020343E493A3F8E493A34003F68001F2AE
:1002300008DFF48029E493A3F85407240CC8C333DF
:10024000C4540F4420C8834004F456800146F6DFAE
:10025000E4800B0102040810204080900374E47EC7
:10026000019360BCA3FF543F30E509541FFEE493A3
:10027000A360010ECF54C025E060A840B8E493A36A
:10028000FAE493A3F8E493A3C8C582C8CAC583CA95
:10029000F0A3C8C582C8CAC583CADFE9DEE780BE4D
:01038000007C
:10004400BC000BBE0029EF8DF084FFADF022E4CCA0
:10005400F875F008EF2FFFEE33FEEC33FCEE9DEC69
:10006400984005FCEE9DFE0FD5F0E9E4CEFD22EDAF
:10007400F8F5F0EE8420D21CFEADF075F008EF2FF9
:10008400FFED33FD4007985006D5F0F222C398FDEA
:050094000FD5F0EA2287
:1000990075F008758200EF2FFFEE33FECD33CDCC1E
:1000A90033CCC58233C5829BED9AEC99E5829840A1
:1000B9000CF582EE9BFEED9AFDEC99FC0FD5F0D67E
:1000C900E4CEFBE4CDFAE4CCF9A88222B800C1B9A8
:1000D9000059BA002DEC8BF084CFCECDFCE5F0CBE6
:1000E900F97818EF2FFFEE33FEED33FDEC33FCEB1F
:1000F90033FB10D703994004EB99FB0FD8E5E4F9DA
:10010900FA227818EF2FFFEE33FEED33FDEC33FCC6
:10011900C933C910D7059BE99A4007EC9BFCE99ABA
:10012900F90FD8E0E4C9FAE4CCFB2275F010EF2FFF
:10013900FFEE33FEED33FDCC33CCC833C810D707FF
:100149009BEC9AE899400AED9BFDEC9AFCE899F83A
:0E0159000FD5F0DAE4CDFBE4CCFAE4C8F922CD
:00000001FF
