:01010A0022D2
:0500B6001200837F052C
:1000BB00E4FEEEC39F5009E4FD0DBD78FC0E80F20B
:0100CB002212
:0F00E000D290D29112010AC29012010AC291224B
:0F00EF00C290D29112010AD29012010AC291223C
:0B009D001200CC1200A8AF051200CC2E
:0E00A800D290D291C200309002D200C29122BA
:1000CC007E08EF339290D29112010AC291EF25E093
:0300DC00FFDEEF55
:0100DF0022FE
:10008300AC071200E07FA01200CC1200A8AF04124C
:0A009300009D1200EF7F0A0200BB7F
:10005F00C29112010AD290E4FED29112010AEF2549
:10006F00E0FDA290E4334DFFC29112010A0EBE08CB
:04007F00E802010A88
:02003700AD0713
:100039001200E07FA012009D1200E07FA11200CC07
:100049001200A812005FAC071200A81200EF7F0A85
:050059001200BBAF0422
:01005E00227F
:10000300E4F509E4FDAF091200B60509E509C39457
:10001300FF40F07D0BE4FF1200B6E4FF1200378FC0
:10002300087F051200BBAD087F031200B6AD0812AE
:0200330000B615
:0200350080CC7D
:030000000200FEFD
:0C00FE00787FE4F6D8FD75812002000335
:00000001FF
