:10055300483A20202025524820543A202020432086
:1005630000543A20202D202020202020202020204D
:100573002000483A20202D20202020202020202049
:0305830020200035
:1006CD0007420000000307030801260A01251E0149
:0B06DD00242801225001280001210008
:10058600C2A18F807F017E00120597D2A27F057ED1
:010596000064
:10059700D3EF9400EE940040147D6E7C00ED1D7047
:0D05A700011CED4C70F7EF1F70E61E80E3A5
:0105B4002224
:10077700438901758CF8758A2FD28CD2A9D2AF2202
:1003E800753F14E5B0540F640F60347F017E00122E
:1003F8000597E5B0540F640F6028E521B40123E4A4
:10040800F52175B00FAFB0EF24F5600F24FE60073B
:1004180014700F753F0122753F0222753F03227544
:020428002101B0
:01042A0022AF
:0A078700C2A2C2A0120586C2A2227F
:070766007FCD1207877FDF42
:0A076D00C2A2D2A0120586C2A22289
:0805E2007A007934E4FD7F0189
:1005EA008D08E508BF01042480800224C0FF120799
:1005FA00871204AEFF600C12076D740129F9E43A00
:04060A00FA80EE2262
:0F04E900AB3D7D027F021204F8AB3E7D0B7F021C
:1004F800EDBF01042480800224C0FF120787EB753A
:10050800F00A84AAF0EB75F00A842430FF12076D14
:07051800EA2430FF02076D29
:1005B500AA05A907BB0112EAB90104248080022417
:1005C500C0FF1207877F0F8010EAB90104248080DD
:0D05D5000224C0FF1207877F0C1207872247
:10051F007F381207877F0C1207877F061207871213
:10052F0005937F011207877B001205E27A00792974
:10053F007D067F011205EA7BFF7A057953E4FD7F83
:04054F00020205EAB5
:03000300DFFE22FB
:10065800D3EF9400EE940040147D6E7C00ED1D7085
:0D066800011CED4C70F7EF1F70E61E80E3E3
:010675002262
:10073800D2917F02120003C2917F1E7E00120658DA
:07074800D2917F1E020003A5
:10067600E4FEFD3091FD7F08120003EE25E0FE301A
:0C06860091010E2091FD0DBD08E9AF06AA
:010692002245
:100388001207382091593091FD7F28120003120678
:10039800768F08120676A907120676AC071206763B
:1003A800AB071206768F0D7F19120003E9FFE508E7
:1003B8002FFFE433FEEC7583002FFFE5833EFEEB51
:1003C8002FFFE5833EFEE50DB5070EE583B506096B
:0F03D800850809890A8C0B8B0C85093D850B3E26
:0103E70022F3
:10030900D3E5256480F8E53E6480984006C294D21E
:10031900938017C3E5266480F8E53E64809850060B
:10032900C293D2948004D294D293D3E5226480F804
:10033900E53D6480984006C296D2958017C3E524AE
:100349006480F8E53D6480985006C295D296800491
:10035900D296D29530960930950630940320931E93
:10036900E4F549C2907F147E00120597D2907F145C
:0F0379007E001205970549E549C3940340E5222C
:10000E00E54024E06050241060030201F8E53F64EF
:10001E000160030201F8754020F5417BFF7A0579F6
:10002E0064FD7F011205EA7A057975E4FD7F0212FF
:10003E0005EAAB267D027F011204F8AB257D067F13
:10004E00011204F8AB247D027F021204F8AB227D6C
:10005E00067F02020182E53F640170600541E541C1
:10006E00B401087B017D077F018018E541B40208C9
:10007E007B017D037F02800BE541B403097B017D8B
:10008E00077F021205B5E541D39403402FE4F541F5
:10009E00FB7D077F021205B57540101205E27A004E
:1000AE0079297D067F011205EA7BFF7A057953E4F3
:1000BE00FD7F021205EA1204E9120766E53F6402AB
:1000CE006003020161E541701D0526D3E5266480BB
:1000DE0094E34003E4F526AB267D027F011204F87B
:1000EE007B017D038020E541B4011F0525D3E52565
:1000FE00648094E34003E4F525AB257D067F011271
:10010E0004F87B017D077F018046E541B4021F059F
:10011E0024D3E524648094E34003E4F524AB247DEA
:10012E00027F021204F87B017D037F028022E541EB
:10013E00B403200522D3E522648094E34003E4F562
:10014E0022AB227D067F021204F87B017D077F021F
:10015E001205B5E53F640360030201F8E541701D29
:10016E001526C3E526648094805003752663AB265E
:10017E007D027F011204F87B017D038020E541B4EE
:10018E00011F1525C3E525648094805003752563F2
:10019E00AB257D067F011204F87B017D077F018070
:1001AE0046E541B4021F1524C3E5246480948050B3
:1001BE0003752463AB247D027F021204F87B017D5C
:1001CE00037F028022E541B403201522C3E5226499
:1001DE008094805003752263AB227D067F02120449
:0B01EE00F87B017D077F021205B5229F
:10060E00E5236021E4F5230528E528D3940540155C
:10061E00E4F528E540B4100DC2AF120388D2AF1234
:06062E0004E91203092299
:1007040012077712051F1204E9120766753F147564
:0A0714004010E4F527F523F541221B
:10071E0012042B12028512070412042B12028512E8
:0A072E0003E812000E12060E80EF21
:03000B00020634B6
:10063400C0E0C0D0C28DC28C0527E527D3943240D8
:1006440006752700752301D28C758CF8758A2FD016
:04065400D0D0E032F0
:06046D008B0E8A0F8910BE
:10047300751280E4FD7F8E1206B0E4F511AB0EAA6F
:100483000FA9101204AEFDAF121206B00512051229
:1004930074012510F510E4350FF50F0511E511C3AF
:0B04A300940740D97D807F8E0206B0D8
:06042B007B007A0079421B
:060431008B088A09890A0C
:10043700750C81E4FD7F8E1206B0E4F50BAF0C124C
:1004470006E9AB08AA09A90A850B82758300EF1292
:1004570004C7050C050C050BE50BC3940740DE7DAF
:06046700807F8E0206B04A
:06069300C2A3C297D2A32E
:100699008F20E4FFA2009292D297C297E520C3135C
:0606A900F5200FBF08EE72
:0106AF002228
:10074F00E4FFE520C313F520A2929207D297C29738
:06075F000FBF08EEAF2001
:010765002271
:1006E90012069312074FD297C2A3EFC4540FFEEF1D
:0A06F900540FFFEE75F00AA42FFF66
:0107030022D3
:1006B000120693ED75F00A84C454F0FFED75F00A4C
:0D06C00084E5F04FFF120699D297C2A322E5
:10028500E54475F00A842430F534E54475F00A84B4
:10029500E5F02430F53575363AE54375F00A8424E2
:1002A50030F537E54375F00A84E5F02430F538E498
:1002B500F539752932752A30E54875F00A842430F8
:1002C500F52BE54875F00A84E5F02430F52C752DFD
:1002D5002FE54675F00A842430F52EE54675F00ABB
:1002E50084E5F02430F52F75302FE54575F00A8447
:1002F5002430F531E54575F00A84E5F02430F53212
:04030500E4F53322C6
:030000000201F901
:0C01F900787FE4F6D8FD758149020240D1
:1004AE00BB010689828A83E0225002E722BBFE024C
:0904BE00E32289828A83E493227F
:1004C700F8BB010DE58229F582E5833AF583E8F06B
:1004D700225006E92582C8F622BBFE05E92582C817
:0204E700F222FF
:1002050002071EE493A3F8E493A34003F68001F2EA
:1002150008DFF48029E493A3F85407240CC8C333FA
:10022500C4540F4420C8834004F456800146F6DFC9
:10023500E4800B01020408102040809006CDE47E86
:10024500019360BCA3FF543F30E509541FFEE493BE
:10025500A360010ECF54C025E060A840B8E493A385
:10026500FAE493A3F8E493A3C8C582C8CAC583CAB0
:10027500F0A3C8C582C8CAC583CADFE9DEE780BE68
:0106E8000011
:00000001FF
